{
  "_format": "hh-sol-artifact-1",
  "contractName": "KhaosNFTFactory",
  "sourceName": "contracts/KhaosNFTFactory.sol",
  "abi": [
    {
      "anonymous": false,
      "inputs": [
        {
          "indexed": false,
          "internalType": "address",
          "name": "creator",
          "type": "address"
        },
        {
          "indexed": false,
          "internalType": "address",
          "name": "nft",
          "type": "address"
        },
        {
          "indexed": false,
          "internalType": "string",
          "name": "name",
          "type": "string"
        },
        {
          "indexed": false,
          "internalType": "string",
          "name": "symbol",
          "type": "string"
        }
      ],
      "name": "CreatedNFTCollection",
      "type": "event"
    },
    {
      "inputs": [
        {
          "internalType": "string",
          "name": "_name",
          "type": "string"
        },
        {
          "internalType": "string",
          "name": "_symbol",
          "type": "string"
        },
        {
          "internalType": "uint256",
          "name": "_royaltyFee",
          "type": "uint256"
        },
        {
          "internalType": "address",
          "name": "_royaltyRecipient",
          "type": "address"
        }
      ],
      "name": "createNFTCollection",
      "outputs": [],
      "stateMutability": "nonpayable",
      "type": "function"
    },
    {
      "inputs": [
        {
          "internalType": "address",
          "name": "_owner",
          "type": "address"
        }
      ],
      "name": "getOwnCollections",
      "outputs": [
        {
          "internalType": "address[]",
          "name": "",
          "type": "address[]"
        }
      ],
      "stateMutability": "view",
      "type": "function"
    },
    {
      "inputs": [
        {
          "internalType": "address",
          "name": "_nft",
          "type": "address"
        }
      ],
      "name": "isKhaosNFT",
      "outputs": [
        {
          "internalType": "bool",
          "name": "",
          "type": "bool"
        }
      ],
      "stateMutability": "view",
      "type": "function"
    }
  ],
  "bytecode": "0x608060405234801561001057600080fd5b50612478806100206000396000f3fe60806040523480156200001157600080fd5b5060043610620000465760003560e01c8063294c0773146200004b5780637a3c7a2c146200007a578063e7a1bd191462000093575b600080fd5b620000626200005c3660046200024f565b620000d3565b60405162000071919062000274565b60405180910390f35b620000916200008b3660046200036e565b62000149565b005b620000c2620000a43660046200024f565b6001600160a01b031660009081526001602052604090205460ff1690565b604051901515815260200162000071565b6001600160a01b038116600090815260208181526040918290208054835181840281018401909452808452606093928301828280156200013d57602002820191906000526020600020905b81546001600160a01b031681526001909101906020018083116200011e575b50505050509050919050565b600084843385856040516200015e9062000224565b6200016e95949392919062000445565b604051809103906000f0801580156200018b573d6000803e3d6000fd5b50336000818152602081815260408083208054600180820183559185528385200180546001600160a01b0319166001600160a01b03881690811790915584529182905291829020805460ff19169091179055519192507f63769cea406878ef0dbb67fc60c62a7c20747798c2703734c451fa2e8381ef249162000215919084908990899062000499565b60405180910390a15050505050565b611f5c80620004e783390190565b80356001600160a01b03811681146200024a57600080fd5b919050565b6000602082840312156200026257600080fd5b6200026d8262000232565b9392505050565b6020808252825182820181905260009190848201906040850190845b81811015620002b75783516001600160a01b03168352928401929184019160010162000290565b50909695505050505050565b634e487b7160e01b600052604160045260246000fd5b600082601f830112620002eb57600080fd5b813567ffffffffffffffff80821115620003095762000309620002c3565b604051601f8301601f19908116603f01168101908282118183101715620003345762000334620002c3565b816040528381528660208588010111156200034e57600080fd5b836020870160208301376000602085830101528094505050505092915050565b600080600080608085870312156200038557600080fd5b843567ffffffffffffffff808211156200039e57600080fd5b620003ac88838901620002d9565b95506020870135915080821115620003c357600080fd5b50620003d287828801620002d9565b93505060408501359150620003ea6060860162000232565b905092959194509250565b6000815180845260005b818110156200041d57602081850181015186830182015201620003ff565b8181111562000430576000602083870101525b50601f01601f19169290920160200192915050565b60a0815260006200045a60a0830188620003f5565b82810360208401526200046e8188620003f5565b6001600160a01b03968716604085015260608401959095525050921660809092019190915292915050565b6001600160a01b03858116825284166020820152608060408201819052600090620004c790830185620003f5565b8281036060840152620004db8185620003f5565b97965050505050505056fe60806040523480156200001157600080fd5b5060405162001f5c38038062001f5c8339810160408190526200003491620003f3565b8451859085906200004d90600090602085019062000263565b5080516200006390600190602084019062000263565b505050620000806200007a6200013060201b60201c565b62000134565b612710821115620000e65760405162461bcd60e51b815260206004820152602560248201527f526f79616c74792063616e2774206265206d6f7265207468616e2031302070656044820152641c98d95b9d60da1b60648201526084015b60405180910390fd5b6001600160a01b038116620000fa57600080fd5b6009829055600a80546001600160a01b0319166001600160a01b038316179055620001258362000186565b5050505050620004c8565b3390565b600780546001600160a01b038381166001600160a01b0319831681179093556040519116919082907f8be0079c531659141344cd1fd0a4f28419497f9722a3daafe3b4186f6b6457e090600090a35050565b6200019062000205565b6001600160a01b038116620001f75760405162461bcd60e51b815260206004820152602660248201527f4f776e61626c653a206e6577206f776e657220697320746865207a65726f206160448201526564647265737360d01b6064820152608401620000dd565b620002028162000134565b50565b6007546001600160a01b03163314620002615760405162461bcd60e51b815260206004820181905260248201527f4f776e61626c653a2063616c6c6572206973206e6f7420746865206f776e65726044820152606401620000dd565b565b82805462000271906200048c565b90600052602060002090601f016020900481019282620002955760008555620002e0565b82601f10620002b057805160ff1916838001178555620002e0565b82800160010185558215620002e0579182015b82811115620002e0578251825591602001919060010190620002c3565b50620002ee929150620002f2565b5090565b5b80821115620002ee5760008155600101620002f3565b634e487b7160e01b600052604160045260246000fd5b600082601f8301126200033157600080fd5b81516001600160401b03808211156200034e576200034e62000309565b604051601f8301601f19908116603f0116810190828211818310171562000379576200037962000309565b816040528381526020925086838588010111156200039657600080fd5b600091505b83821015620003ba57858201830151818301840152908201906200039b565b83821115620003cc5760008385830101525b9695505050505050565b80516001600160a01b0381168114620003ee57600080fd5b919050565b600080600080600060a086880312156200040c57600080fd5b85516001600160401b03808211156200042457600080fd5b6200043289838a016200031f565b965060208801519150808211156200044957600080fd5b5062000458888289016200031f565b9450506200046960408701620003d6565b9250606086015191506200048060808701620003d6565b90509295509295909350565b600181811c90821680620004a157607f821691505b602082108103620004c257634e487b7160e01b600052602260045260246000fd5b50919050565b611a8480620004d86000396000f3fe60806040526004361061012a5760003560e01c8063715018a6116100ab578063a22cb4651161006f578063a22cb46514610329578063b88d4fde14610349578063c87b56dd14610369578063d204c45e14610389578063e985e9c51461039c578063f2fde38b146103e557600080fd5b8063715018a6146102ae578063820bdcdc146102c35780638da5cb5b146102d857806395d89b41146102f657806395edc18c1461030b57600080fd5b806342842e0e116100f257806342842e0e1461020057806342966c68146102205780634e83be47146102405780636352211e1461026057806370a082311461028057600080fd5b806301ffc9a71461012f57806306fdde0314610164578063081812fc14610186578063095ea7b3146101be57806323b872dd146101e0575b600080fd5b34801561013b57600080fd5b5061014f61014a366004611522565b610405565b60405190151581526020015b60405180910390f35b34801561017057600080fd5b50610179610457565b60405161015b9190611597565b34801561019257600080fd5b506101a66101a13660046115aa565b6104e9565b6040516001600160a01b03909116815260200161015b565b3480156101ca57600080fd5b506101de6101d93660046115df565b610510565b005b3480156101ec57600080fd5b506101de6101fb366004611609565b61062a565b34801561020c57600080fd5b506101de61021b366004611609565b61065c565b34801561022c57600080fd5b506101de61023b3660046115aa565b610677565b34801561024c57600080fd5b506101de61025b3660046115aa565b6106a8565b34801561026c57600080fd5b506101a661027b3660046115aa565b610715565b34801561028c57600080fd5b506102a061029b366004611645565b610775565b60405190815260200161015b565b3480156102ba57600080fd5b506101de6107fb565b3480156102cf57600080fd5b506009546102a0565b3480156102e457600080fd5b506007546001600160a01b03166101a6565b34801561030257600080fd5b5061017961080f565b34801561031757600080fd5b50600a546001600160a01b03166101a6565b34801561033557600080fd5b506101de610344366004611660565b61081e565b34801561035557600080fd5b506101de610364366004611728565b61082d565b34801561037557600080fd5b506101796103843660046115aa565b610865565b6101de6103973660046117a4565b610870565b3480156103a857600080fd5b5061014f6103b7366004611806565b6001600160a01b03918216600090815260056020908152604080832093909416825291909152205460ff1690565b3480156103f157600080fd5b506101de610400366004611645565b6108a7565b60006001600160e01b031982166380ac58cd60e01b148061043657506001600160e01b03198216635b5e139f60e01b145b8061045157506301ffc9a760e01b6001600160e01b03198316145b92915050565b60606000805461046690611839565b80601f016020809104026020016040519081016040528092919081815260200182805461049290611839565b80156104df5780601f106104b4576101008083540402835291602001916104df565b820191906000526020600020905b8154815290600101906020018083116104c257829003601f168201915b5050505050905090565b60006104f48261091d565b506000908152600460205260409020546001600160a01b031690565b600061051b82610715565b9050806001600160a01b0316836001600160a01b03160361058d5760405162461bcd60e51b815260206004820152602160248201527f4552433732313a20617070726f76616c20746f2063757272656e74206f776e656044820152603960f91b60648201526084015b60405180910390fd5b336001600160a01b03821614806105a957506105a981336103b7565b61061b5760405162461bcd60e51b815260206004820152603e60248201527f4552433732313a20617070726f76652063616c6c6572206973206e6f7420746f60448201527f6b656e206f776e6572206e6f7220617070726f76656420666f7220616c6c00006064820152608401610584565b610625838361097c565b505050565b610635335b826109ea565b6106515760405162461bcd60e51b815260040161058490611873565b610625838383610a69565b6106258383836040518060200160405280600081525061082d565b6106803361062f565b61069c5760405162461bcd60e51b815260040161058490611873565b6106a581610c05565b50565b6106b0610c0e565b6127108111156107105760405162461bcd60e51b815260206004820152602560248201527f526f79616c74792063616e2774206265206d6f7265207468616e2031302070656044820152641c98d95b9d60da1b6064820152608401610584565b600955565b6000818152600260205260408120546001600160a01b0316806104515760405162461bcd60e51b8152602060048201526018602482015277115490cdcc8c4e881a5b9d985b1a59081d1bdad95b88125160421b6044820152606401610584565b60006001600160a01b0382166107df5760405162461bcd60e51b815260206004820152602960248201527f4552433732313a2061646472657373207a65726f206973206e6f7420612076616044820152683634b21037bbb732b960b91b6064820152608401610584565b506001600160a01b031660009081526003602052604090205490565b610803610c0e565b61080d6000610c68565b565b60606001805461046690611839565b610829338383610cba565b5050565b61083733836109ea565b6108535760405162461bcd60e51b815260040161058490611873565b61085f84848484610d88565b50505050565b606061045182610dbb565b610878610c0e565b600061088360085490565b9050610893600880546001019055565b61089d8382610ec3565b6106258183610edd565b6108af610c0e565b6001600160a01b0381166109145760405162461bcd60e51b815260206004820152602660248201527f4f776e61626c653a206e6577206f776e657220697320746865207a65726f206160448201526564647265737360d01b6064820152608401610584565b6106a581610c68565b6000818152600260205260409020546001600160a01b03166106a55760405162461bcd60e51b8152602060048201526018602482015277115490cdcc8c4e881a5b9d985b1a59081d1bdad95b88125160421b6044820152606401610584565b600081815260046020526040902080546001600160a01b0319166001600160a01b03841690811790915581906109b182610715565b6001600160a01b03167f8c5be1e5ebec7d5bd14f71427d1e84f3dd0314c0f7b2291e5b200ac8c7c3b92560405160405180910390a45050565b6000806109f683610715565b9050806001600160a01b0316846001600160a01b03161480610a3d57506001600160a01b0380821660009081526005602090815260408083209388168352929052205460ff165b80610a615750836001600160a01b0316610a56846104e9565b6001600160a01b0316145b949350505050565b826001600160a01b0316610a7c82610715565b6001600160a01b031614610ae05760405162461bcd60e51b815260206004820152602560248201527f4552433732313a207472616e736665722066726f6d20696e636f72726563742060448201526437bbb732b960d91b6064820152608401610584565b6001600160a01b038216610b425760405162461bcd60e51b8152602060048201526024808201527f4552433732313a207472616e7366657220746f20746865207a65726f206164646044820152637265737360e01b6064820152608401610584565b610b4d60008261097c565b6001600160a01b0383166000908152600360205260408120805460019290610b769084906118d7565b90915550506001600160a01b0382166000908152600360205260408120805460019290610ba49084906118ee565b909155505060008181526002602052604080822080546001600160a01b0319166001600160a01b0386811691821790925591518493918716917fddf252ad1be2c89b69c2b068fc378daa952ba7f163c4a11628f55a4df523b3ef91a4505050565b6106a581610f77565b6007546001600160a01b0316331461080d5760405162461bcd60e51b815260206004820181905260248201527f4f776e61626c653a2063616c6c6572206973206e6f7420746865206f776e65726044820152606401610584565b600780546001600160a01b038381166001600160a01b0319831681179093556040519116919082907f8be0079c531659141344cd1fd0a4f28419497f9722a3daafe3b4186f6b6457e090600090a35050565b816001600160a01b0316836001600160a01b031603610d1b5760405162461bcd60e51b815260206004820152601960248201527f4552433732313a20617070726f766520746f2063616c6c6572000000000000006044820152606401610584565b6001600160a01b03838116600081815260056020908152604080832094871680845294825291829020805460ff191686151590811790915591519182527f17307eab39ab6107e8899845ad3d59bd9653f200f220920489ca2b5937696c31910160405180910390a3505050565b610d93848484610a69565b610d9f84848484610fb7565b61085f5760405162461bcd60e51b815260040161058490611906565b6060610dc68261091d565b60008281526006602052604081208054610ddf90611839565b80601f0160208091040260200160405190810160405280929190818152602001828054610e0b90611839565b8015610e585780601f10610e2d57610100808354040283529160200191610e58565b820191906000526020600020905b815481529060010190602001808311610e3b57829003601f168201915b505050505090506000610e7660408051602081019091526000815290565b90508051600003610e88575092915050565b815115610eba578082604051602001610ea2929190611958565b60405160208183030381529060405292505050919050565b610a61846110b8565b61082982826040518060200160405280600081525061112c565b6000828152600260205260409020546001600160a01b0316610f585760405162461bcd60e51b815260206004820152602e60248201527f45524337323155524953746f726167653a2055524920736574206f66206e6f6e60448201526d32bc34b9ba32b73a103a37b5b2b760911b6064820152608401610584565b600082815260066020908152604090912082516106259284019061143d565b610f808161115f565b60008181526006602052604090208054610f9990611839565b1590506106a55760008181526006602052604081206106a5916114c1565b60006001600160a01b0384163b156110ad57604051630a85bd0160e11b81526001600160a01b0385169063150b7a0290610ffb903390899088908890600401611987565b6020604051808303816000875af1925050508015611036575060408051601f3d908101601f19168201909252611033918101906119c4565b60015b611093573d808015611064576040519150601f19603f3d011682016040523d82523d6000602084013e611069565b606091505b50805160000361108b5760405162461bcd60e51b815260040161058490611906565b805181602001fd5b6001600160e01b031916630a85bd0160e11b149050610a61565b506001949350505050565b60606110c38261091d565b60006110da60408051602081019091526000815290565b905060008151116110fa5760405180602001604052806000815250611125565b80611104846111fa565b604051602001611115929190611958565b6040516020818303038152906040525b9392505050565b61113683836112fb565b6111436000848484610fb7565b6106255760405162461bcd60e51b815260040161058490611906565b600061116a82610715565b905061117760008361097c565b6001600160a01b03811660009081526003602052604081208054600192906111a09084906118d7565b909155505060008281526002602052604080822080546001600160a01b0319169055518391906001600160a01b038416907fddf252ad1be2c89b69c2b068fc378daa952ba7f163c4a11628f55a4df523b3ef908390a45050565b6060816000036112215750506040805180820190915260018152600360fc1b602082015290565b8160005b811561124b5780611235816119e1565b91506112449050600a83611a10565b9150611225565b60008167ffffffffffffffff8111156112665761126661169c565b6040519080825280601f01601f191660200182016040528015611290576020820181803683370190505b5090505b8415610a61576112a56001836118d7565b91506112b2600a86611a24565b6112bd9060306118ee565b60f81b8183815181106112d2576112d2611a38565b60200101906001600160f81b031916908160001a9053506112f4600a86611a10565b9450611294565b6001600160a01b0382166113515760405162461bcd60e51b815260206004820181905260248201527f4552433732313a206d696e7420746f20746865207a65726f20616464726573736044820152606401610584565b6000818152600260205260409020546001600160a01b0316156113b65760405162461bcd60e51b815260206004820152601c60248201527f4552433732313a20746f6b656e20616c7265616479206d696e746564000000006044820152606401610584565b6001600160a01b03821660009081526003602052604081208054600192906113df9084906118ee565b909155505060008181526002602052604080822080546001600160a01b0319166001600160a01b03861690811790915590518392907fddf252ad1be2c89b69c2b068fc378daa952ba7f163c4a11628f55a4df523b3ef908290a45050565b82805461144990611839565b90600052602060002090601f01602090048101928261146b57600085556114b1565b82601f1061148457805160ff19168380011785556114b1565b828001600101855582156114b1579182015b828111156114b1578251825591602001919060010190611496565b506114bd9291506114f7565b5090565b5080546114cd90611839565b6000825580601f106114dd575050565b601f0160209004906000526020600020908101906106a591905b5b808211156114bd57600081556001016114f8565b6001600160e01b0319811681146106a557600080fd5b60006020828403121561153457600080fd5b81356111258161150c565b60005b8381101561155a578181015183820152602001611542565b8381111561085f5750506000910152565b6000815180845261158381602086016020860161153f565b601f01601f19169290920160200192915050565b602081526000611125602083018461156b565b6000602082840312156115bc57600080fd5b5035919050565b80356001600160a01b03811681146115da57600080fd5b919050565b600080604083850312156115f257600080fd5b6115fb836115c3565b946020939093013593505050565b60008060006060848603121561161e57600080fd5b611627846115c3565b9250611635602085016115c3565b9150604084013590509250925092565b60006020828403121561165757600080fd5b611125826115c3565b6000806040838503121561167357600080fd5b61167c836115c3565b91506020830135801515811461169157600080fd5b809150509250929050565b634e487b7160e01b600052604160045260246000fd5b600067ffffffffffffffff808411156116cd576116cd61169c565b604051601f8501601f19908116603f011681019082821181831017156116f5576116f561169c565b8160405280935085815286868601111561170e57600080fd5b858560208301376000602087830101525050509392505050565b6000806000806080858703121561173e57600080fd5b611747856115c3565b9350611755602086016115c3565b925060408501359150606085013567ffffffffffffffff81111561177857600080fd5b8501601f8101871361178957600080fd5b611798878235602084016116b2565b91505092959194509250565b600080604083850312156117b757600080fd5b6117c0836115c3565b9150602083013567ffffffffffffffff8111156117dc57600080fd5b8301601f810185136117ed57600080fd5b6117fc858235602084016116b2565b9150509250929050565b6000806040838503121561181957600080fd5b611822836115c3565b9150611830602084016115c3565b90509250929050565b600181811c9082168061184d57607f821691505b60208210810361186d57634e487b7160e01b600052602260045260246000fd5b50919050565b6020808252602e908201527f4552433732313a2063616c6c6572206973206e6f7420746f6b656e206f776e6560408201526d1c881b9bdc88185c1c1c9bdd995960921b606082015260800190565b634e487b7160e01b600052601160045260246000fd5b6000828210156118e9576118e96118c1565b500390565b60008219821115611901576119016118c1565b500190565b60208082526032908201527f4552433732313a207472616e7366657220746f206e6f6e20455243373231526560408201527131b2b4bb32b91034b6b83632b6b2b73a32b960711b606082015260800190565b6000835161196a81846020880161153f565b83519083019061197e81836020880161153f565b01949350505050565b6001600160a01b03858116825284166020820152604081018390526080606082018190526000906119ba9083018461156b565b9695505050505050565b6000602082840312156119d657600080fd5b81516111258161150c565b6000600182016119f3576119f36118c1565b5060010190565b634e487b7160e01b600052601260045260246000fd5b600082611a1f57611a1f6119fa565b500490565b600082611a3357611a336119fa565b500690565b634e487b7160e01b600052603260045260246000fdfea2646970667358221220b5c2ab9878429a510280253de10bff5e319da056e1e3c992474bbcb0cc097e5864736f6c634300080d0033a264697066735822122007da52c4a4ec2e277470831de6bd04dc117a76bb04748c38db84d7b38745886064736f6c634300080d0033",
  "linkReferences": {},
  "deployedLinkReferences": {}
}