{
  "_format": "hh-sol-artifact-1",
  "contractName": "KhaosMarketplace",
  "sourceName": "contracts/KhaosMarketplace.sol",
  "abi": [
    {
      "inputs": [
        {
          "internalType": "uint256",
          "name": "_policyFee",
          "type": "uint256"
        },
        {
          "internalType": "address",
          "name": "_marketAddress",
          "type": "address"
        },
        {
          "internalType": "contract KhaosNFTFactory",
          "name": "_khaosNFTFactory",
          "type": "address"
        }
      ],
      "stateMutability": "nonpayable",
      "type": "constructor"
    },
    {
      "anonymous": false,
      "inputs": [
        {
          "indexed": true,
          "internalType": "address",
          "name": "_nft",
          "type": "address"
        },
        {
          "indexed": true,
          "internalType": "uint256",
          "name": "_tokenId",
          "type": "uint256"
        },
        {
          "indexed": false,
          "internalType": "address",
          "name": "_payToken",
          "type": "address"
        },
        {
          "indexed": false,
          "internalType": "uint256",
          "name": "_price",
          "type": "uint256"
        },
        {
          "indexed": true,
          "internalType": "address",
          "name": "_seller",
          "type": "address"
        }
      ],
      "name": "Bought_NFT",
      "type": "event"
    },
    {
      "anonymous": false,
      "inputs": [
        {
          "indexed": true,
          "internalType": "address",
          "name": "_nft",
          "type": "address"
        },
        {
          "indexed": true,
          "internalType": "uint256",
          "name": "_tokenId",
          "type": "uint256"
        },
        {
          "indexed": false,
          "internalType": "address",
          "name": "_payToken",
          "type": "address"
        },
        {
          "indexed": false,
          "internalType": "uint256",
          "name": "_price",
          "type": "uint256"
        },
        {
          "indexed": true,
          "internalType": "address",
          "name": "_seller",
          "type": "address"
        }
      ],
      "name": "Listed_NFT",
      "type": "event"
    },
    {
      "anonymous": false,
      "inputs": [
        {
          "indexed": true,
          "internalType": "address",
          "name": "previousOwner",
          "type": "address"
        },
        {
          "indexed": true,
          "internalType": "address",
          "name": "newOwner",
          "type": "address"
        }
      ],
      "name": "OwnershipTransferred",
      "type": "event"
    },
    {
      "inputs": [
        {
          "internalType": "address",
          "name": "_token",
          "type": "address"
        }
      ],
      "name": "addPayableToken",
      "outputs": [],
      "stateMutability": "nonpayable",
      "type": "function"
    },
    {
      "inputs": [
        {
          "internalType": "address",
          "name": "_nft",
          "type": "address"
        },
        {
          "internalType": "uint256",
          "name": "_tokenId",
          "type": "uint256"
        },
        {
          "internalType": "address",
          "name": "_payToken",
          "type": "address"
        },
        {
          "internalType": "uint256",
          "name": "_price",
          "type": "uint256"
        }
      ],
      "name": "buyNFT",
      "outputs": [],
      "stateMutability": "payable",
      "type": "function"
    },
    {
      "inputs": [
        {
          "internalType": "address",
          "name": "_payableToken",
          "type": "address"
        }
      ],
      "name": "checkIsPayableToken",
      "outputs": [
        {
          "internalType": "bool",
          "name": "",
          "type": "bool"
        }
      ],
      "stateMutability": "view",
      "type": "function"
    },
    {
      "inputs": [],
      "name": "getPayableTokens",
      "outputs": [
        {
          "internalType": "address[]",
          "name": "",
          "type": "address[]"
        }
      ],
      "stateMutability": "view",
      "type": "function"
    },
    {
      "inputs": [
        {
          "internalType": "uint256",
          "name": "_price",
          "type": "uint256"
        }
      ],
      "name": "getPolicyFeeAmount",
      "outputs": [
        {
          "internalType": "uint256",
          "name": "",
          "type": "uint256"
        }
      ],
      "stateMutability": "view",
      "type": "function"
    },
    {
      "inputs": [
        {
          "internalType": "uint256",
          "name": "_royaltyFee",
          "type": "uint256"
        },
        {
          "internalType": "uint256",
          "name": "_price",
          "type": "uint256"
        }
      ],
      "name": "getRoyaltyAmount",
      "outputs": [
        {
          "internalType": "uint256",
          "name": "",
          "type": "uint256"
        }
      ],
      "stateMutability": "pure",
      "type": "function"
    },
    {
      "inputs": [
        {
          "internalType": "address",
          "name": "_nft",
          "type": "address"
        },
        {
          "internalType": "uint256",
          "name": "_tokenId",
          "type": "uint256"
        },
        {
          "internalType": "address",
          "name": "_payToken",
          "type": "address"
        },
        {
          "internalType": "uint256",
          "name": "_price",
          "type": "uint256"
        }
      ],
      "name": "listNFT",
      "outputs": [],
      "stateMutability": "nonpayable",
      "type": "function"
    },
    {
      "inputs": [],
      "name": "marketAddress",
      "outputs": [
        {
          "internalType": "address",
          "name": "",
          "type": "address"
        }
      ],
      "stateMutability": "view",
      "type": "function"
    },
    {
      "inputs": [],
      "name": "owner",
      "outputs": [
        {
          "internalType": "address",
          "name": "",
          "type": "address"
        }
      ],
      "stateMutability": "view",
      "type": "function"
    },
    {
      "inputs": [],
      "name": "policyFee",
      "outputs": [
        {
          "internalType": "uint256",
          "name": "",
          "type": "uint256"
        }
      ],
      "stateMutability": "view",
      "type": "function"
    },
    {
      "inputs": [],
      "name": "renounceOwnership",
      "outputs": [],
      "stateMutability": "nonpayable",
      "type": "function"
    },
    {
      "inputs": [
        {
          "internalType": "address",
          "name": "newOwner",
          "type": "address"
        }
      ],
      "name": "transferOwnership",
      "outputs": [],
      "stateMutability": "nonpayable",
      "type": "function"
    },
    {
      "inputs": [
        {
          "internalType": "uint256",
          "name": "_policyFee",
          "type": "uint256"
        }
      ],
      "name": "updatePolicyFee",
      "outputs": [],
      "stateMutability": "nonpayable",
      "type": "function"
    }
  ],
  "bytecode": "0x60a060405234801561001057600080fd5b50604051620013243803806200132483398101604081905261003191610129565b61003a336100c1565b6001805560025461271010156100965760405162461bcd60e51b815260206004820152601d60248201527f43616e2774206265206d6f7265207468616e2031302070657263656e74000000604482015260640160405180910390fd5b600292909255600380546001600160a01b0319166001600160a01b039283161790551660805261016c565b600080546001600160a01b038381166001600160a01b0319831681178455604051919092169283917f8be0079c531659141344cd1fd0a4f28419497f9722a3daafe3b4186f6b6457e09190a35050565b6001600160a01b038116811461012657600080fd5b50565b60008060006060848603121561013e57600080fd5b83519250602084015161015081610111565b604085015190925061016181610111565b809150509250925092565b60805161119c620001886000396000610ae7015261119c6000f3fe6080604052600436106100c25760003560e01c80639b4d03ab1161007f578063c77a063511610059578063c77a063514610228578063f01ade7814610248578063f2fde38b1461025b578063f7adbbc91461027b57600080fd5b80639b4d03ab1461019b5780639d8f4f55146101bf578063b988cdb61461020857600080fd5b806313201385146100c75780635b5b3314146100e9578063715018a6146101145780637dc94b9b146101295780638da5cb5b14610149578063956236411461017b575b600080fd5b3480156100d357600080fd5b506100e76100e2366004610f8f565b61029b565b005b3480156100f557600080fd5b506100fe6103b5565b60405161010b9190610fac565b60405180910390f35b34801561012057600080fd5b506100e7610417565b34801561013557600080fd5b506100e7610144366004610ff9565b61042b565b34801561015557600080fd5b506000546001600160a01b03165b6040516001600160a01b03909116815260200161010b565b34801561018757600080fd5b50600354610163906001600160a01b031681565b3480156101a757600080fd5b506101b160025481565b60405190815260200161010b565b3480156101cb57600080fd5b506101f86101da366004610f8f565b6001600160a01b031660009081526005602052604090205460ff1690565b604051901515815260200161010b565b34801561021457600080fd5b506101b1610223366004610ff9565b61048a565b34801561023457600080fd5b506101b1610243366004611012565b6104ad565b6100e7610256366004611034565b6104cd565b34801561026757600080fd5b506100e7610276366004610f8f565b610a4d565b34801561028757600080fd5b506100e7610296366004611034565b610ac6565b6102a3610ed0565b6001600160a01b0381166102ee5760405162461bcd60e51b815260206004820152600d60248201526c24b73b30b634b2103a37b5b2b760991b60448201526064015b60405180910390fd5b6001600160a01b03811660009081526005602052604090205460ff161561034f5760405162461bcd60e51b815260206004820152601560248201527420b63932b0b23c903830bcb0b13632903a37b5b2b760591b60448201526064016102e5565b6001600160a01b03166000818152600560205260408120805460ff191660019081179091556006805491820181559091527ff652222313e28459528d920b65115c16c04f3efc82aaedc97be59f3f377c0d3f0180546001600160a01b0319169091179055565b6060600680548060200260200160405190810160405280929190818152602001828054801561040d57602002820191906000526020600020905b81546001600160a01b031681526001909101906020018083116103ef575b5050505050905090565b61041f610ed0565b6104296000610f2a565b565b610433610ed0565b6127108111156104855760405162461bcd60e51b815260206004820152601d60248201527f43616e2774206265206d6f7265207468616e2031302070657263656e7400000060448201526064016102e5565b600255565b60006127106002548361049d9190611092565b6104a791906110b1565b92915050565b60006127106104bc8484611092565b6104c691906110b1565b9392505050565b6001600160a01b038085166000908152600460208181526040808420888552825292839020835160c081018552815486168152600182015492810192909252600281015485169382018490526003810154909416606082015290830154608082015260059092015460ff16151560a0830152859185911580159061055357508060a00151155b61058c5760405162461bcd60e51b815260206004820152600a602482015269139bdd081b1a5cdd195960b21b60448201526064016102e5565b846001600160a01b038116158015906105bd57506001600160a01b03811660009081526005602052604090205460ff165b6105fd5760405162461bcd60e51b815260206004820152601160248201527024b73b30b634b2103830bc903a37b5b2b760791b60448201526064016102e5565b6001600160a01b0380891660009081526004602090815260408083208b8452909152902090871615801590610641575060038101546001600160a01b038881169116145b61064a57600080fd5b600581015460ff16156106965760405162461bcd60e51b8152602060048201526014602482015273139195081dd85cc8185b1c9958591e481cdbdb1960621b60448201526064016102e5565b80600401548610156106a757600080fd5b60058101805460ff1916600117905580546040805163257b706360e21b8152905188926001600160a01b03169160009183916395edc18c9160048083019260209291908290030181865afa158015610703573d6000803e3d6000fd5b505050506040513d601f19601f8201168201806040525081019061072791906110d3565b90506000826001600160a01b031663820bdcdc6040518163ffffffff1660e01b8152600401602060405180830381865afa158015610769573d6000803e3d6000fd5b505050506040513d601f19601f8201168201806040525081019061078d91906110f0565b9050801561082a5760006107a1828c6104ad565b60038701546040516323b872dd60e01b81529192506001600160a01b0316906323b872dd906107d890339087908690600401611109565b6020604051808303816000875af11580156107f7573d6000803e3d6000fd5b505050506040513d601f19601f8201168201806040525081019061081b919061112d565b50610826818661114f565b9450505b60006108358b61048a565b60038088015490546040516323b872dd60e01b81529293506001600160a01b03918216926323b872dd926108729233929116908690600401611109565b6020604051808303816000875af1158015610891573d6000803e3d6000fd5b505050506040513d601f19601f820116820180604052508101906108b5919061112d565b50600386015460028701546001600160a01b03918216916323b872dd913391166108df858a61114f565b6040518463ffffffff1660e01b81526004016108fd93929190611109565b6020604051808303816000875af115801561091c573d6000803e3d6000fd5b505050506040513d601f19601f82011682018060405250810190610940919061112d565b5085546001870154604051632142170760e11b81526001600160a01b03909216916342842e0e916109779130913391600401611109565b600060405180830381600087803b15801561099157600080fd5b505af11580156109a5573d6000803e3d6000fd5b50505050336001600160a01b031686600101548760000160009054906101000a90046001600160a01b03166001600160a01b03167f162512b6241e168c666d87f4fbd254e9f0c9caa22e140d94c1fab31dae86babd8960030160009054906101000a90046001600160a01b03168f604051610a359291906001600160a01b03929092168252602082015260400190565b60405180910390a45050505050505050505050505050565b610a55610ed0565b6001600160a01b038116610aba5760405162461bcd60e51b815260206004820152602660248201527f4f776e61626c653a206e6577206f776e657220697320746865207a65726f206160448201526564647265737360d01b60648201526084016102e5565b610ac381610f2a565b50565b60405163e7a1bd1960e01b81526001600160a01b03808616600483015285917f00000000000000000000000000000000000000000000000000000000000000009091169063e7a1bd1990602401602060405180830381865afa158015610b30573d6000803e3d6000fd5b505050506040513d601f19601f82011682018060405250810190610b54919061112d565b610b905760405162461bcd60e51b815260206004820152600d60248201526c139bdd0812da185bdcc8139195609a1b60448201526064016102e5565b826001600160a01b03811615801590610bc157506001600160a01b03811660009081526005602052604090205460ff165b610c015760405162461bcd60e51b815260206004820152601160248201527024b73b30b634b2103830bc903a37b5b2b760791b60448201526064016102e5565b6040516331a9108f60e11b815260048101869052869033906001600160a01b03831690636352211e90602401602060405180830381865afa158015610c4a573d6000803e3d6000fd5b505050506040513d601f19601f82011682018060405250810190610c6e91906110d3565b6001600160a01b031614610cc45760405162461bcd60e51b815260206004820152601b60248201527f43616c6c6572206973206e6f7420746865204e4654206f776e6572000000000060448201526064016102e5565b6040516323b872dd60e01b81526001600160a01b038216906323b872dd90610cf490339030908b90600401611109565b600060405180830381600087803b158015610d0e57600080fd5b505af1158015610d22573d6000803e3d6000fd5b505050506040518060c00160405280886001600160a01b03168152602001878152602001336001600160a01b03168152602001866001600160a01b031681526020018581526020016000151581525060046000896001600160a01b03166001600160a01b03168152602001908152602001600020600088815260200190815260200160002060008201518160000160006101000a8154816001600160a01b0302191690836001600160a01b031602179055506020820151816001015560408201518160020160006101000a8154816001600160a01b0302191690836001600160a01b0316021790555060608201518160030160006101000a8154816001600160a01b0302191690836001600160a01b031602179055506080820151816004015560a08201518160050160006101000a81548160ff021916908315150217905550905050336001600160a01b031686886001600160a01b03167ffaf5f4da160f1d4f71941a7a31143839cd67dec7bccfd94796209aef6fa520ba8888604051610ebf9291906001600160a01b03929092168252602082015260400190565b60405180910390a450505050505050565b6000546001600160a01b031633146104295760405162461bcd60e51b815260206004820181905260248201527f4f776e61626c653a2063616c6c6572206973206e6f7420746865206f776e657260448201526064016102e5565b600080546001600160a01b038381166001600160a01b0319831681178455604051919092169283917f8be0079c531659141344cd1fd0a4f28419497f9722a3daafe3b4186f6b6457e09190a35050565b6001600160a01b0381168114610ac357600080fd5b600060208284031215610fa157600080fd5b81356104c681610f7a565b6020808252825182820181905260009190848201906040850190845b81811015610fed5783516001600160a01b031683529284019291840191600101610fc8565b50909695505050505050565b60006020828403121561100b57600080fd5b5035919050565b6000806040838503121561102557600080fd5b50508035926020909101359150565b6000806000806080858703121561104a57600080fd5b843561105581610f7a565b935060208501359250604085013561106c81610f7a565b9396929550929360600135925050565b634e487b7160e01b600052601160045260246000fd5b60008160001904831182151516156110ac576110ac61107c565b500290565b6000826110ce57634e487b7160e01b600052601260045260246000fd5b500490565b6000602082840312156110e557600080fd5b81516104c681610f7a565b60006020828403121561110257600080fd5b5051919050565b6001600160a01b039384168152919092166020820152604081019190915260600190565b60006020828403121561113f57600080fd5b815180151581146104c657600080fd5b6000828210156111615761116161107c565b50039056fea2646970667358221220a229fcbec09416b9e494eb3c1377022cd8ff34dd9fb3f06ba2ae977813bcd78964736f6c634300080d0033",
  "linkReferences": {},
  "deployedLinkReferences": {}
}